{
  "contractName": "Election",
  "abi": [
    {
      "constant": true,
      "inputs": [],
      "name": "count",
      "outputs": [
        {
          "name": "",
          "type": "uint256"
        }
      ],
      "payable": false,
      "stateMutability": "view",
      "type": "function"
    },
    {
      "constant": true,
      "inputs": [
        {
          "name": "",
          "type": "uint256"
        }
      ],
      "name": "candidates",
      "outputs": [
        {
          "name": "id",
          "type": "uint256"
        },
        {
          "name": "name",
          "type": "string"
        },
        {
          "name": "voteCount",
          "type": "uint256"
        }
      ],
      "payable": false,
      "stateMutability": "view",
      "type": "function"
    },
    {
      "constant": true,
      "inputs": [
        {
          "name": "",
          "type": "address"
        }
      ],
      "name": "voters",
      "outputs": [
        {
          "name": "",
          "type": "bool"
        }
      ],
      "payable": false,
      "stateMutability": "view",
      "type": "function"
    },
    {
      "inputs": [],
      "payable": false,
      "stateMutability": "nonpayable",
      "type": "constructor"
    },
    {
      "anonymous": false,
      "inputs": [
        {
          "indexed": true,
          "name": "_candidateId",
          "type": "uint256"
        }
      ],
      "name": "votedEvent",
      "type": "event"
    },
    {
      "constant": false,
      "inputs": [
        {
          "name": "_name",
          "type": "string"
        }
      ],
      "name": "addperson",
      "outputs": [],
      "payable": false,
      "stateMutability": "nonpayable",
      "type": "function"
    },
    {
      "constant": false,
      "inputs": [
        {
          "name": "_candidateId",
          "type": "uint256"
        }
      ],
      "name": "vote",
      "outputs": [],
      "payable": false,
      "stateMutability": "nonpayable",
      "type": "function"
    }
  ],
  "bytecode": "0x60806040526000805534801561001457600080fd5b5060028054600160a060020a0319163317905561051d806100366000396000f3fe608060405260043610610066577c010000000000000000000000000000000000000000000000000000000060003504630121b93f811461006b57806306661abd146100975780631d0a0e4d146100be5780633477ee2e14610171578063a3ec138d14610221575b600080fd5b34801561007757600080fd5b506100956004803603602081101561008e57600080fd5b5035610275565b005b3480156100a357600080fd5b506100ac61030d565b60408051918252519081900360200190f35b3480156100ca57600080fd5b50610095600480360360208110156100e157600080fd5b8101906020810181356401000000008111156100fc57600080fd5b82018360208201111561010e57600080fd5b8035906020019184600183028401116401000000008311171561013057600080fd5b91908080601f016020809104026020016040519081016040528093929190818152602001838380828437600092019190915250929550610313945050505050565b34801561017d57600080fd5b5061019b6004803603602081101561019457600080fd5b5035610395565b6040518084815260200180602001838152602001828103825284818151815260200191508051906020019080838360005b838110156101e45781810151838201526020016101cc565b50505050905090810190601f1680156102115780820380516001836020036101000a031916815260200191505b5094505050505060405180910390f35b34801561022d57600080fd5b506102616004803603602081101561024457600080fd5b503573ffffffffffffffffffffffffffffffffffffffff16610441565b604080519115158252519081900360200190f35b3360009081526003602052604090205460ff161561029257600080fd5b6000811180156102a457506000548111155b15156102af57600080fd5b336000908152600360209081526040808320805460ff191660019081179091558484529182905280832060020180549092019091555182917ffff3c900d938d21d0990d786e819f29b8d05c1ef587b462b939609625b684b1691a250565b60005481565b60025473ffffffffffffffffffffffffffffffffffffffff16331461033757600080fd5b600080546001908101808355604080516060810182528281526020808201878152828401879052938652848152919094208451815591518051929361038493908501929190910190610456565b506040820151816002015590505050565b600160208181526000928352604092839020805481840180548651600296821615610100026000190190911695909504601f810185900485028601850190965285855290949193929091908301828280156104315780601f1061040657610100808354040283529160200191610431565b820191906000526020600020905b81548152906001019060200180831161041457829003601f168201915b5050505050908060020154905083565b60036020526000908152604090205460ff1681565b828054600181600116156101000203166002900490600052602060002090601f016020900481019282601f1061049757805160ff19168380011785556104c4565b828001600101855582156104c4579182015b828111156104c45782518255916020019190600101906104a9565b506104d09291506104d4565b5090565b6104ee91905b808211156104d057600081556001016104da565b9056fea165627a7a72305820726513e14cea496ae3942d004e23b8c3c95707b9207e1b45a3d8337987217d600029",
  "source": "pragma solidity >=0.4.22 <0.9.0;\r\ncontract Election{\r\n    //Structure of Candidates\r\n    struct candidate{\r\n        uint id;\r\n        string name;\r\n        uint voteCount;\r\n    }\r\n\r\n    //Number of candidates\r\n    uint public count=0; \r\n    mapping(uint => candidate) public candidates;\r\n\r\n    //Making one address as admin to control the addition of candidates\r\n    constructor() public{\r\n       admin=msg.sender;\r\n    }\r\n    modifier onlyadmin(){\r\n       require(msg.sender==admin);\r\n       _;\r\n    }\r\n    address admin;\r\n    // Function to add candidate by the Admin\r\n    function addperson(string memory _name)public onlyadmin{\r\n       count+=1;\r\n       candidates[count]=candidate(count,_name,0);\r\n    }\r\n   // Store accounts that have voted\r\n    mapping(address => bool) public voters;\r\n    \r\n      // voted event\r\n    event votedEvent (\r\n        uint indexed _candidateId\r\n    );\r\n    \r\n    function vote (uint _candidateId) public {\r\n        //to check wether the voter is valid or not.\r\n        require(!voters[msg.sender]);\r\n\r\n        // condition for a valid candidate\r\n        require(_candidateId > 0 && _candidateId <= count);\r\n\r\n        // record that voter has voted\r\n        voters[msg.sender] = true;\r\n\r\n        // update candidate vote Count\r\n        candidates[_candidateId].voteCount ++;\r\n\r\n        // trigger voted event\r\n        emit votedEvent(_candidateId);\r\n    }\r\n}",
  "sourcePath": "E:/Blockchain/Election/contracts/Election.sol",
  "compiler": {
    "name": "solc",
    "version": "0.5.1+commit.c8a2cb62.Emscripten.clang"
  },
  "schemaVersion": "3.4.1",
  "updatedAt": "2021-07-03T14:32:36.753Z",
  "networkType": "ethereum",
  "devdoc": {
    "methods": {}
  },
  "userdoc": {
    "methods": {}
  }
}